{
  "_format": "hh3-artifact-1",
  "contractName": "PredictionArena",
  "sourceName": "contracts/PredictionArena.sol",
  "abi": [
    {
      "inputs": [
        {
          "internalType": "address",
          "name": "_pythAddress",
          "type": "address"
        }
      ],
      "stateMutability": "nonpayable",
      "type": "constructor"
    },
    {
      "inputs": [],
      "name": "ReentrancyGuardReentrantCall",
      "type": "error"
    },
    {
      "anonymous": false,
      "inputs": [
        {
          "indexed": true,
          "internalType": "address",
          "name": "agent",
          "type": "address"
        }
      ],
      "name": "AgentRegistered",
      "type": "event"
    },
    {
      "anonymous": false,
      "inputs": [
        {
          "indexed": true,
          "internalType": "address",
          "name": "agent",
          "type": "address"
        },
        {
          "indexed": false,
          "internalType": "uint256",
          "name": "wins",
          "type": "uint256"
        },
        {
          "indexed": false,
          "internalType": "uint256",
          "name": "losses",
          "type": "uint256"
        }
      ],
      "name": "AgentStatsUpdated",
      "type": "event"
    },
    {
      "anonymous": false,
      "inputs": [
        {
          "indexed": true,
          "internalType": "uint256",
          "name": "roundId",
          "type": "uint256"
        },
        {
          "indexed": true,
          "internalType": "address",
          "name": "player",
          "type": "address"
        },
        {
          "indexed": false,
          "internalType": "uint256",
          "name": "amount",
          "type": "uint256"
        }
      ],
      "name": "Payout",
      "type": "event"
    },
    {
      "anonymous": false,
      "inputs": [
        {
          "indexed": true,
          "internalType": "uint256",
          "name": "roundId",
          "type": "uint256"
        },
        {
          "indexed": true,
          "internalType": "address",
          "name": "player",
          "type": "address"
        },
        {
          "indexed": false,
          "internalType": "int64",
          "name": "value",
          "type": "int64"
        }
      ],
      "name": "PredictionSubmitted",
      "type": "event"
    },
    {
      "anonymous": false,
      "inputs": [
        {
          "indexed": true,
          "internalType": "uint256",
          "name": "roundId",
          "type": "uint256"
        },
        {
          "indexed": true,
          "internalType": "address",
          "name": "player",
          "type": "address"
        },
        {
          "indexed": false,
          "internalType": "uint256",
          "name": "amount",
          "type": "uint256"
        }
      ],
      "name": "RefundClaimed",
      "type": "event"
    },
    {
      "anonymous": false,
      "inputs": [
        {
          "indexed": true,
          "internalType": "uint256",
          "name": "roundId",
          "type": "uint256"
        },
        {
          "indexed": false,
          "internalType": "string",
          "name": "reason",
          "type": "string"
        }
      ],
      "name": "RoundCancelled",
      "type": "event"
    },
    {
      "anonymous": false,
      "inputs": [
        {
          "indexed": true,
          "internalType": "uint256",
          "name": "id",
          "type": "uint256"
        },
        {
          "indexed": false,
          "internalType": "string",
          "name": "question",
          "type": "string"
        },
        {
          "indexed": false,
          "internalType": "uint256",
          "name": "entryFee",
          "type": "uint256"
        },
        {
          "indexed": false,
          "internalType": "uint256",
          "name": "endTime",
          "type": "uint256"
        },
        {
          "indexed": false,
          "internalType": "bool",
          "name": "usePyth",
          "type": "bool"
        }
      ],
      "name": "RoundCreated",
      "type": "event"
    },
    {
      "anonymous": false,
      "inputs": [
        {
          "indexed": true,
          "internalType": "uint256",
          "name": "roundId",
          "type": "uint256"
        },
        {
          "indexed": false,
          "internalType": "int64",
          "name": "outcome",
          "type": "int64"
        },
        {
          "indexed": false,
          "internalType": "address[]",
          "name": "winners",
          "type": "address[]"
        }
      ],
      "name": "RoundResolved",
      "type": "event"
    },
    {
      "anonymous": false,
      "inputs": [
        {
          "indexed": false,
          "internalType": "uint256",
          "name": "amount",
          "type": "uint256"
        }
      ],
      "name": "TreasuryWithdrawn",
      "type": "event"
    },
    {
      "inputs": [
        {
          "internalType": "address",
          "name": "",
          "type": "address"
        }
      ],
      "name": "agentStats",
      "outputs": [
        {
          "internalType": "uint256",
          "name": "wins",
          "type": "uint256"
        },
        {
          "internalType": "uint256",
          "name": "losses",
          "type": "uint256"
        },
        {
          "internalType": "uint256",
          "name": "totalWagered",
          "type": "uint256"
        },
        {
          "internalType": "uint256",
          "name": "totalWon",
          "type": "uint256"
        },
        {
          "internalType": "uint256",
          "name": "roundsPlayed",
          "type": "uint256"
        },
        {
          "internalType": "uint256",
          "name": "bestStreak",
          "type": "uint256"
        },
        {
          "internalType": "uint256",
          "name": "currentStreak",
          "type": "uint256"
        },
        {
          "internalType": "bool",
          "name": "isRegistered",
          "type": "bool"
        }
      ],
      "stateMutability": "view",
      "type": "function"
    },
    {
      "inputs": [
        {
          "internalType": "uint256",
          "name": "_roundId",
          "type": "uint256"
        }
      ],
      "name": "cancelRound",
      "outputs": [],
      "stateMutability": "nonpayable",
      "type": "function"
    },
    {
      "inputs": [
        {
          "internalType": "uint256",
          "name": "_roundId",
          "type": "uint256"
        }
      ],
      "name": "claimRefund",
      "outputs": [],
      "stateMutability": "nonpayable",
      "type": "function"
    },
    {
      "inputs": [
        {
          "internalType": "string",
          "name": "_question",
          "type": "string"
        },
        {
          "internalType": "bytes32",
          "name": "_pythPriceId",
          "type": "bytes32"
        },
        {
          "internalType": "uint256",
          "name": "_entryFee",
          "type": "uint256"
        },
        {
          "internalType": "uint256",
          "name": "_duration",
          "type": "uint256"
        }
      ],
      "name": "createPythRound",
      "outputs": [],
      "stateMutability": "nonpayable",
      "type": "function"
    },
    {
      "inputs": [
        {
          "internalType": "string",
          "name": "_question",
          "type": "string"
        },
        {
          "internalType": "uint256",
          "name": "_entryFee",
          "type": "uint256"
        },
        {
          "internalType": "uint256",
          "name": "_duration",
          "type": "uint256"
        }
      ],
      "name": "createRound",
      "outputs": [],
      "stateMutability": "nonpayable",
      "type": "function"
    },
    {
      "inputs": [
        {
          "internalType": "address",
          "name": "_agent",
          "type": "address"
        }
      ],
      "name": "getAgentStats",
      "outputs": [
        {
          "components": [
            {
              "internalType": "uint256",
              "name": "wins",
              "type": "uint256"
            },
            {
              "internalType": "uint256",
              "name": "losses",
              "type": "uint256"
            },
            {
              "internalType": "uint256",
              "name": "totalWagered",
              "type": "uint256"
            },
            {
              "internalType": "uint256",
              "name": "totalWon",
              "type": "uint256"
            },
            {
              "internalType": "uint256",
              "name": "roundsPlayed",
              "type": "uint256"
            },
            {
              "internalType": "uint256",
              "name": "bestStreak",
              "type": "uint256"
            },
            {
              "internalType": "uint256",
              "name": "currentStreak",
              "type": "uint256"
            },
            {
              "internalType": "bool",
              "name": "isRegistered",
              "type": "bool"
            }
          ],
          "internalType": "struct PredictionArena.AgentStats",
          "name": "",
          "type": "tuple"
        }
      ],
      "stateMutability": "view",
      "type": "function"
    },
    {
      "inputs": [],
      "name": "getLeaderboard",
      "outputs": [
        {
          "internalType": "address[]",
          "name": "",
          "type": "address[]"
        },
        {
          "internalType": "uint256[]",
          "name": "",
          "type": "uint256[]"
        }
      ],
      "stateMutability": "view",
      "type": "function"
    },
    {
      "inputs": [],
      "name": "getRegisteredAgents",
      "outputs": [
        {
          "internalType": "address[]",
          "name": "",
          "type": "address[]"
        }
      ],
      "stateMutability": "view",
      "type": "function"
    },
    {
      "inputs": [
        {
          "internalType": "uint256",
          "name": "_roundId",
          "type": "uint256"
        }
      ],
      "name": "getRoundPlayers",
      "outputs": [
        {
          "internalType": "address[]",
          "name": "",
          "type": "address[]"
        }
      ],
      "stateMutability": "view",
      "type": "function"
    },
    {
      "inputs": [],
      "name": "owner",
      "outputs": [
        {
          "internalType": "address",
          "name": "",
          "type": "address"
        }
      ],
      "stateMutability": "view",
      "type": "function"
    },
    {
      "inputs": [
        {
          "internalType": "uint256",
          "name": "",
          "type": "uint256"
        },
        {
          "internalType": "address",
          "name": "",
          "type": "address"
        }
      ],
      "name": "predictions",
      "outputs": [
        {
          "internalType": "address",
          "name": "player",
          "type": "address"
        },
        {
          "internalType": "int64",
          "name": "value",
          "type": "int64"
        },
        {
          "internalType": "uint256",
          "name": "timestamp",
          "type": "uint256"
        }
      ],
      "stateMutability": "view",
      "type": "function"
    },
    {
      "inputs": [],
      "name": "pyth",
      "outputs": [
        {
          "internalType": "contract IPyth",
          "name": "",
          "type": "address"
        }
      ],
      "stateMutability": "view",
      "type": "function"
    },
    {
      "inputs": [
        {
          "internalType": "uint256",
          "name": "",
          "type": "uint256"
        },
        {
          "internalType": "address",
          "name": "",
          "type": "address"
        }
      ],
      "name": "refunded",
      "outputs": [
        {
          "internalType": "bool",
          "name": "",
          "type": "bool"
        }
      ],
      "stateMutability": "view",
      "type": "function"
    },
    {
      "inputs": [],
      "name": "registerAgent",
      "outputs": [],
      "stateMutability": "nonpayable",
      "type": "function"
    },
    {
      "inputs": [
        {
          "internalType": "uint256",
          "name": "",
          "type": "uint256"
        }
      ],
      "name": "registeredAgents",
      "outputs": [
        {
          "internalType": "address",
          "name": "",
          "type": "address"
        }
      ],
      "stateMutability": "view",
      "type": "function"
    },
    {
      "inputs": [
        {
          "internalType": "uint256",
          "name": "_roundId",
          "type": "uint256"
        },
        {
          "internalType": "int64",
          "name": "_outcome",
          "type": "int64"
        }
      ],
      "name": "resolveRound",
      "outputs": [],
      "stateMutability": "nonpayable",
      "type": "function"
    },
    {
      "inputs": [
        {
          "internalType": "uint256",
          "name": "_roundId",
          "type": "uint256"
        },
        {
          "internalType": "bytes[]",
          "name": "priceUpdateData",
          "type": "bytes[]"
        }
      ],
      "name": "resolveWithPyth",
      "outputs": [],
      "stateMutability": "payable",
      "type": "function"
    },
    {
      "inputs": [],
      "name": "roundCount",
      "outputs": [
        {
          "internalType": "uint256",
          "name": "",
          "type": "uint256"
        }
      ],
      "stateMutability": "view",
      "type": "function"
    },
    {
      "inputs": [
        {
          "internalType": "uint256",
          "name": "",
          "type": "uint256"
        }
      ],
      "name": "rounds",
      "outputs": [
        {
          "internalType": "uint256",
          "name": "id",
          "type": "uint256"
        },
        {
          "internalType": "string",
          "name": "question",
          "type": "string"
        },
        {
          "internalType": "bytes32",
          "name": "pythPriceId",
          "type": "bytes32"
        },
        {
          "internalType": "uint256",
          "name": "entryFee",
          "type": "uint256"
        },
        {
          "internalType": "uint256",
          "name": "startTime",
          "type": "uint256"
        },
        {
          "internalType": "uint256",
          "name": "endTime",
          "type": "uint256"
        },
        {
          "internalType": "int64",
          "name": "outcome",
          "type": "int64"
        },
        {
          "internalType": "bool",
          "name": "resolved",
          "type": "bool"
        },
        {
          "internalType": "bool",
          "name": "cancelled",
          "type": "bool"
        },
        {
          "internalType": "bool",
          "name": "usePyth",
          "type": "bool"
        }
      ],
      "stateMutability": "view",
      "type": "function"
    },
    {
      "inputs": [
        {
          "internalType": "uint256",
          "name": "_roundId",
          "type": "uint256"
        },
        {
          "internalType": "int64",
          "name": "_value",
          "type": "int64"
        }
      ],
      "name": "submitPrediction",
      "outputs": [],
      "stateMutability": "payable",
      "type": "function"
    },
    {
      "inputs": [
        {
          "internalType": "address",
          "name": "_newPyth",
          "type": "address"
        }
      ],
      "name": "updatePythAddress",
      "outputs": [],
      "stateMutability": "nonpayable",
      "type": "function"
    },
    {
      "inputs": [
        {
          "internalType": "uint256",
          "name": "_amount",
          "type": "uint256"
        }
      ],
      "name": "withdrawTreasury",
      "outputs": [],
      "stateMutability": "nonpayable",
      "type": "function"
    },
    {
      "stateMutability": "payable",
      "type": "receive"
    }
  ],
  "bytecode": "0x6080604052348015600e575f5ffd5b506040516128b43803806128b4833981016040819052602b91605f565b60015f81905560088054336001600160a01b0319918216179091558154166001600160a01b0392909216919091179055608a565b5f60208284031215606e575f5ffd5b81516001600160a01b03811681146083575f5ffd5b9392505050565b61281d806100975f395ff3fe608060405260043610610134575f3560e01c80637e07ab09116100a85780639427c8de1161006d5780639427c8de14610466578063a7bd211c14610485578063a7df2780146104a4578063b5695b38146104b7578063d08e81c514610538578063f98d06f01461054b575f5ffd5b80637e07ab091461034c578063875ff2801461036b5780638c65c81f1461037f5780638da5cb5b146103b457806392b108d0146103eb575f5ffd5b80635b7baf64116100f95780635b7baf64146102045780636d763a6e146102235780636dbacf49146102455780636deca466146102e25780636e0ccb9014610301578063776e11dd14610320575f5ffd5b806311f1fc991461013f578063127f0b3f1461016057806335eb5208146101885780634951bcdd1461019c5780634f1ff459146101bb575f5ffd5b3661013b57005b5f5ffd5b34801561014a575f5ffd5b5061015e61015936600461202c565b61056a565b005b34801561016b575f5ffd5b5061017560075481565b6040519081526020015b60405180910390f35b348015610193575f5ffd5b5061015e6106ad565b3480156101a7575f5ffd5b5061015e6101b63660046120e0565b610801565b3480156101c6575f5ffd5b506101f46101d536600461214a565b600460209081525f928352604080842090915290825290205460ff1681565b604051901515815260200161017f565b34801561020f575f5ffd5b5061015e61021e36600461202c565b61083f565b34801561022e575f5ffd5b50610237610a52565b60405161017f9291906121b7565b348015610250575f5ffd5b506102a561025f36600461220f565b600560208190525f918252604090912080546001820154600283015460038401546004850154958501546006860154600790960154949693959294919392909160ff1688565b604080519889526020890197909752958701949094526060860192909252608085015260a084015260c0830152151560e08201526101000161017f565b3480156102ed575f5ffd5b5061015e6102fc36600461220f565b610d11565b34801561030c575f5ffd5b5061015e61031b36600461223d565b610d5d565b34801561032b575f5ffd5b5061033f61033a36600461202c565b610e4b565b60405161017f919061226b565b348015610357575f5ffd5b5061015e61036636600461202c565b610eb7565b348015610376575f5ffd5b5061033f610f12565b34801561038a575f5ffd5b5061039e61039936600461202c565b610f72565b60405161017f9a999897969594939291906122ab565b3480156103bf575f5ffd5b506008546103d3906001600160a01b031681565b6040516001600160a01b03909116815260200161017f565b3480156103f6575f5ffd5b5061043e61040536600461214a565b600360209081525f9283526040808420909152908252902080546001909101546001600160a01b03821691600160a01b900460070b9083565b604080516001600160a01b03909416845260079290920b60208401529082015260600161017f565b348015610471575f5ffd5b5061015e61048036600461230f565b611058565b348015610490575f5ffd5b506103d361049f36600461202c565b611094565b61015e6104b2366004612358565b6110bc565b3480156104c2575f5ffd5b506104d66104d136600461220f565b6112dd565b60405161017f91905f61010082019050825182526020830151602083015260408301516040830152606083015160608301526080830151608083015260a083015160a083015260c083015160c083015260e0830151151560e083015292915050565b61015e61054636600461223d565b611399565b348015610556575f5ffd5b506001546103d3906001600160a01b031681565b6008546001600160a01b0316331461059d5760405162461bcd60e51b8152600401610594906123d0565b60405180910390fd5b478111156105e45760405162461bcd60e51b8152602060048201526014602482015273496e73756666696369656e742062616c616e636560601b6044820152606401610594565b6008546040515f916001600160a01b03169083908381818185875af1925050503d805f811461062e576040519150601f19603f3d011682016040523d82523d5f602084013e610633565b606091505b50509050806106765760405162461bcd60e51b815260206004820152600f60248201526e15da5d1a191c985dc819985a5b1959608a1b6044820152606401610594565b6040518281527fdcfb70a6f0f5eab41644ac0cde62fe5f51ce0bb0a53b88ea72c4b2b78ad887bc9060200160405180910390a15050565b335f9081526005602052604090206007015460ff16156107045760405162461bcd60e51b8152602060048201526012602482015271105b1c9958591e481c9959da5cdd195c995960721b6044820152606401610594565b60408051610100810182525f8082526020808301828152838501838152606085018481526080860185815260a0870186815260c08801878152600160e08a0181815233808b526005998a90528c8b209b518c5597518b830155955160028b0155935160038a0155915160048901555194870194909455925160068087019190915590516007909501805460ff191695151595909517909455835491820184559282527ff652222313e28459528d920b65115c16c04f3efc82aaedc97be59f3f377c0d3f0180546001600160a01b03191683179055915190917f82d0829d9d481e4cb9913897f9b9c903271c4db68c7b3324071d2a7e3b2c5ff091a2565b6008546001600160a01b0316331461082b5760405162461bcd60e51b8152600401610594906123d0565b6108398484848460016116d0565b50505050565b610847611791565b5f8181526002602052604090206006810154600160481b900460ff166108a55760405162461bcd60e51b8152602060048201526013602482015272149bdd5b99081b9bdd0818d85b98d95b1b1959606a1b6044820152606401610594565b5f82815260036020908152604080832033845290915281206001015490036109035760405162461bcd60e51b8152602060048201526011602482015270139bdd0818481c185c9d1a58da5c185b9d607a1b6044820152606401610594565b5f82815260046020908152604080832033845290915290205460ff161561095f5760405162461bcd60e51b815260206004820152601060248201526f105b1c9958591e481c99599d5b99195960821b6044820152606401610594565b5f828152600460209081526040808320338085529252808320805460ff19166001179055600384015490519092919083908381818185875af1925050503d805f81146109c6576040519150601f19603f3d011682016040523d82523d5f602084013e6109cb565b606091505b5050905080610a0c5760405162461bcd60e51b815260206004820152600d60248201526c1499599d5b990819985a5b1959609a1b6044820152606401610594565b604051828152339085907ff3f402280ef0a7905e124aa621b65eaeb2725c343e8b36d398ed78c29daf285c9060200160405180910390a3505050610a4f60015f55565b50565b60065460609081905f816001600160401b03811115610a7357610a73612043565b604051908082528060200260200182016040528015610a9c578160200160208202803683370190505b5090505f826001600160401b03811115610ab857610ab8612043565b604051908082528060200260200182016040528015610ae1578160200160208202803683370190505b5090505f5b83811015610baf5760068181548110610b0157610b016123f8565b905f5260205f20015f9054906101000a90046001600160a01b0316838281518110610b2e57610b2e6123f8565b60200260200101906001600160a01b031690816001600160a01b03168152505060055f60068381548110610b6457610b646123f8565b5f9182526020808320909101546001600160a01b031683528201929092526040019020548251839083908110610b9c57610b9c6123f8565b6020908102919091010152600101610ae6565b505f5b83811015610d06575f610bc6826001612420565b90505b84811015610cfd57828281518110610be357610be36123f8565b6020026020010151838281518110610bfd57610bfd6123f8565b60200260200101511115610cf557828181518110610c1d57610c1d6123f8565b6020026020010151838381518110610c3757610c376123f8565b6020026020010151848481518110610c5157610c516123f8565b60200260200101858481518110610c6a57610c6a6123f8565b6020026020010182815250828152505050838181518110610c8d57610c8d6123f8565b6020026020010151848381518110610ca757610ca76123f8565b6020026020010151858481518110610cc157610cc16123f8565b60200260200101868481518110610cda57610cda6123f8565b6001600160a01b039384166020918202929092010152911690525b600101610bc9565b50600101610bb2565b509094909350915050565b6008546001600160a01b03163314610d3b5760405162461bcd60e51b8152600401610594906123d0565b600180546001600160a01b0319166001600160a01b0392909216919091179055565b6008546001600160a01b03163314610d875760405162461bcd60e51b8152600401610594906123d0565b610d8f611791565b5f82118015610da057506007548211155b610dbc5760405162461bcd60e51b815260040161059490612433565b5f8281526002602052604090206006810154600160501b900460ff1615610e335760405162461bcd60e51b815260206004820152602560248201527f557365207265736f6c7665576974685079746820666f72206f7261636c6520726044820152646f756e647360d81b6064820152608401610594565b610e3d83836117b9565b50610e4760015f55565b5050565b5f81815260026020908152604091829020600701805483518184028101840190945280845260609392830182828015610eab57602002820191905f5260205f20905b81546001600160a01b03168152600190910190602001808311610e8d575b50505050509050919050565b6008546001600160a01b03163314610ee15760405162461bcd60e51b8152600401610594906123d0565b610a4f816040518060400160405280600f81526020016e10591b5a5b8818d85b98d95b1b1959608a1b815250611ee7565b60606006805480602002602001604051908101604052809291908181526020018280548015610f6857602002820191905f5260205f20905b81546001600160a01b03168152600190910190602001808311610f4a575b5050505050905090565b60026020525f908152604090208054600182018054919291610f939061245d565b80601f0160208091040260200160405190810160405280929190818152602001828054610fbf9061245d565b801561100a5780601f10610fe15761010080835404028352916020019161100a565b820191905f5260205f20905b815481529060010190602001808311610fed57829003601f168201915b5050506002840154600385015460048601546005870154600690970154959692959194509250600781900b9060ff600160401b8204811691600160481b8104821691600160501b909104168a565b6008546001600160a01b031633146110825760405162461bcd60e51b8152600401610594906123d0565b61108f835f8484826116d0565b505050565b600681815481106110a3575f80fd5b5f918252602090912001546001600160a01b0316905081565b6008546001600160a01b031633146110e65760405162461bcd60e51b8152600401610594906123d0565b6110ee611791565b5f831180156110ff57506007548311155b61111b5760405162461bcd60e51b815260040161059490612433565b5f8381526002602052604090206006810154600160501b900460ff166111765760405162461bcd60e51b815260206004820152601060248201526f139bdd081848141e5d1a081c9bdd5b9960821b6044820152606401610594565b60015460405163d47eed4560e01b81525f916001600160a01b03169063d47eed45906111a890879087906004016124bd565b602060405180830381865afa1580156111c3573d5f5f3e3d5ffd5b505050506040513d601f19601f820116820180604052508101906111e7919061255b565b600154604051631df3cbc560e31b81529192506001600160a01b03169063ef9e5e2890839061121c90889088906004016124bd565b5f604051808303818588803b158015611233575f5ffd5b505af1158015611245573d5f5f3e3d5ffd5b505060015460028601546040516396834ad360e01b81525f95506001600160a01b0390921693506396834ad392506112839160040190815260200190565b608060405180830381865afa15801561129e573d5f5f3e3d5ffd5b505050506040513d601f19601f820116820180604052508101906112c29190612572565b90506112d186825f01516117b9565b50505061108f60015f55565b61131f6040518061010001604052805f81526020015f81526020015f81526020015f81526020015f81526020015f81526020015f81526020015f151581525090565b506001600160a01b03165f908152600560208181526040928390208351610100810185528154815260018201549281019290925260028101549382019390935260038301546060820152600483015460808201529082015460a0820152600682015460c082015260079091015460ff16151560e082015290565b6113a1611791565b335f9081526005602052604090206007015460ff166113f95760405162461bcd60e51b81526020600482015260146024820152731059d95b9d081b9bdd081c9959da5cdd195c995960621b6044820152606401610594565b5f8211801561140a57506007548211155b6114265760405162461bcd60e51b815260040161059490612433565b5f8281526002602052604090206006810154600160481b900460ff16156114815760405162461bcd60e51b815260206004820152600f60248201526e149bdd5b990818d85b98d95b1b1959608a1b6044820152606401610594565b6006810154600160401b900460ff16156114ce5760405162461bcd60e51b815260206004820152600e60248201526d149bdd5b99081c995cdbdb1d995960921b6044820152606401610594565b8060050154421061150f5760405162461bcd60e51b815260206004820152600b60248201526a149bdd5b9908195b99195960aa1b6044820152606401610594565b806003015434146115585760405162461bcd60e51b8152602060048201526013602482015272496e636f727265637420656e7472792066656560681b6044820152606401610594565b5f838152600360209081526040808320338452909152902060010154156115b55760405162461bcd60e51b8152602060048201526011602482015270105b1c9958591e481c1c99591a58dd1959607a1b6044820152606401610594565b6040805160608101825233808252600785810b6020808501918252428587019081525f8a81526003835287812086825283528781209651875494516001600160401b0316600160a01b026001600160e01b03199095166001600160a01b0391909116179390931786555160019586015591860180549485018155815281812090930180546001600160a01b03191683179055908252600590529081206002018054349290611664908490612420565b9091555050335f90815260056020526040812060040180549161168683612600565b9091555050604051600783900b8152339084907fe2b06fa85a23566adbf16393a69b7ef05cc6b043693b419834c9be67af3e37f59060200160405180910390a350610e4760015f55565b60078054905f6116df83612600565b90915550506007545f818152600260205260409020908155600181016117058782612663565b5060028101859055600381018490554260048201819055611727908490612420565b6005820181905560068201805460ff60501b1916600160501b8515150217905560075460405190917fd08caf55fd1ef859a310c1723382ad30feef4141bffcfd0aa834996ea6bb03eb91611781918a91899190889061271d565b60405180910390a2505050505050565b60025f54036117b357604051633ee5aeb560e01b815260040160405180910390fd5b60025f55565b5f8281526002602052604090206006810154600160401b900460ff16156118155760405162461bcd60e51b815260206004820152601060248201526f105b1c9958591e481c995cdbdb1d995960821b6044820152606401610594565b6006810154600160481b900460ff16156118655760405162461bcd60e51b8152602060048201526011602482015270105b1c9958591e4818d85b98d95b1b1959607a1b6044820152606401610594565b806005015442116118aa5760405162461bcd60e51b815260206004820152600f60248201526e149bdd5b99081b9bdd08195b991959608a1b6044820152606401610594565b6007810154600211156118ed5761108f8360405180604001604052806014815260200173496e73756666696369656e7420706c617965727360601b815250611ee7565b60068101805468ffffffffffffffffff19166001600160401b03841617600160401b1790555f195f5b6007830154811015611998575f836007018281548110611938576119386123f8565b5f9182526020808320909101548883526003825260408084206001600160a01b039092168085529190925290822054909250600160a01b900460070b9061197f8288611ff3565b90508481101561198d578094505b505050600101611916565b5060078201545f906001600160401b038111156119b7576119b7612043565b6040519080825280602002602001820160405280156119e0578160200160208202803683370190505b5090505f805b6007850154811015611a9c575f856007018281548110611a0857611a086123f8565b5f9182526020808320909101548a83526003825260408084206001600160a01b039092168085529190925290822054909250600160a01b900460070b90611a4f828a611ff3565b9050868103611a915782868681518110611a6b57611a6b6123f8565b6001600160a01b039092166020928302919091019091015284611a8d81612600565b9550505b5050506001016119e6565b505f5b6007850154811015611c7e575f856007018281548110611ac157611ac16123f8565b5f9182526020822001546001600160a01b03169150805b84811015611b2357826001600160a01b0316868281518110611afc57611afc6123f8565b60200260200101516001600160a01b031603611b1b5760019150611b23565b600101611ad8565b508015611bcf576001600160a01b0382165f908152600560205260408120805491611b4d83612600565b90915550506001600160a01b0382165f908152600560205260408120600601805491611b7883612600565b90915550506001600160a01b0382165f908152600560208190526040909120908101546006909101541115611bca576001600160a01b0382165f90815260056020819052604090912060068101549101555b611c16565b6001600160a01b0382165f908152600560205260408120600101805491611bf583612600565b90915550506001600160a01b0382165f908152600560205260408120600601555b6001600160a01b0382165f8181526005602052604090819020805460019091015491517fbbe7bb91bb8b369ff5bfd7b31243aca80d2a40dc4c9c535d816a2b5302b3593792611c6c928252602082015260400190565b60405180910390a25050600101611a9f565b50600384015460078501545f91611c949161274d565b90505f611ca18383612764565b90505f836001600160401b03811115611cbc57611cbc612043565b604051908082528060200260200182016040528015611ce5578160200160208202803683370190505b5090505f5b84811015611ea157858181518110611d0457611d046123f8565b6020026020010151828281518110611d1e57611d1e6123f8565b60200260200101906001600160a01b031690816001600160a01b0316815250508260055f888481518110611d5457611d546123f8565b60200260200101516001600160a01b03166001600160a01b031681526020019081526020015f206003015f828254611d8c9190612420565b925050819055505f868281518110611da657611da66123f8565b60200260200101516001600160a01b0316846040515f6040518083038185875af1925050503d805f8114611df5576040519150601f19603f3d011682016040523d82523d5f602084013e611dfa565b606091505b5050905080611e3b5760405162461bcd60e51b815260206004820152600d60248201526c14185e5bdd5d0819985a5b1959609a1b6044820152606401610594565b868281518110611e4d57611e4d6123f8565b60200260200101516001600160a01b03168b7f5f7341a552ae2d452b071917104c05fbac3663936a69be768a05c40605056e7d86604051611e9091815260200190565b60405180910390a350600101611cea565b50887f0152688a61448fb9eddf3b66a51ac2fb5510cd15680ed0a9231457f832dae89b8983604051611ed4929190612783565b60405180910390a2505050505050505050565b5f8281526002602052604090206006810154600160401b900460ff1615611f495760405162461bcd60e51b815260206004820152601660248201527510d85b9b9bdd0818d85b98d95b081c995cdbdb1d995960521b6044820152606401610594565b6006810154600160481b900460ff1615611f995760405162461bcd60e51b8152602060048201526011602482015270105b1c9958591e4818d85b98d95b1b1959607a1b6044820152606401610594565b60068101805469ff0000000000000000001916600160481b17905560405183907f9220622428c3161d3444b6fa6e4c2991f48dd359515f98b6ef7fac06f0a18ea890611fe69085906127a6565b60405180910390a2505050565b5f8160070b8360070b131561201c5761200c82846127b8565b6001600160401b03169050612026565b61200c83836127b8565b92915050565b5f6020828403121561203c575f5ffd5b5035919050565b634e487b7160e01b5f52604160045260245ffd5b5f82601f830112612066575f5ffd5b81356001600160401b0381111561207f5761207f612043565b604051601f8201601f19908116603f011681016001600160401b03811182821017156120ad576120ad612043565b6040528181528382016020018510156120c4575f5ffd5b816020850160208301375f918101602001919091529392505050565b5f5f5f5f608085870312156120f3575f5ffd5b84356001600160401b03811115612108575f5ffd5b61211487828801612057565b97602087013597506040870135966060013595509350505050565b80356001600160a01b0381168114612145575f5ffd5b919050565b5f5f6040838503121561215b575f5ffd5b8235915061216b6020840161212f565b90509250929050565b5f8151808452602084019350602083015f5b828110156121ad5781516001600160a01b0316865260209586019590910190600101612186565b5093949350505050565b604081525f6121c96040830185612174565b82810360208401528084518083526020830191506020860192505f5b818110156122035783518352602093840193909201916001016121e5565b50909695505050505050565b5f6020828403121561221f575f5ffd5b6122288261212f565b9392505050565b8060070b8114610a4f575f5ffd5b5f5f6040838503121561224e575f5ffd5b8235915060208301356122608161222f565b809150509250929050565b602081525f6122286020830184612174565b5f81518084528060208401602086015e5f602082860101526020601f19601f83011685010191505092915050565b8a815261014060208201525f6122c561014083018c61227d565b604083019a909a52506060810197909752608087019590955260a086019390935260079190910b60c0850152151560e0840152151561010083015215156101209091015292915050565b5f5f5f60608486031215612321575f5ffd5b83356001600160401b03811115612336575f5ffd5b61234286828701612057565b9660208601359650604090950135949350505050565b5f5f5f6040848603121561236a575f5ffd5b8335925060208401356001600160401b03811115612386575f5ffd5b8401601f81018613612396575f5ffd5b80356001600160401b038111156123ab575f5ffd5b8660208260051b84010111156123bf575f5ffd5b939660209190910195509293505050565b6020808252600e908201526d139bdd08185d5d1a1bdc9a5e995960921b604082015260600190565b634e487b7160e01b5f52603260045260245ffd5b634e487b7160e01b5f52601160045260245ffd5b808201808211156120265761202661240c565b60208082526010908201526f125b9d985b1a59081c9bdd5b9908125160821b604082015260600190565b600181811c9082168061247157607f821691505b60208210810361248f57634e487b7160e01b5f52602260045260245ffd5b50919050565b81835281816020850137505f828201602090810191909152601f909101601f19169091010190565b602080825281018290525f6040600584901b830181019083018583601e1936839003015b8782101561254e57868503603f1901845282358181126124ff575f5ffd5b89016020810190356001600160401b0381111561251a575f5ffd5b803603821315612528575f5ffd5b612533878284612495565b965050506020830192506020840193506001820191506124e1565b5092979650505050505050565b5f6020828403121561256b575f5ffd5b5051919050565b5f6080828403128015612583575f5ffd5b50604051608081016001600160401b03811182821017156125a6576125a6612043565b60405282516125b48161222f565b815260208301516001600160401b03811681146125cf575f5ffd5b60208201526040830151600381900b81146125e8575f5ffd5b60408201526060928301519281019290925250919050565b5f600182016126115761261161240c565b5060010190565b601f82111561108f57805f5260205f20601f840160051c8101602085101561263d5750805b601f840160051c820191505b8181101561265c575f8155600101612649565b5050505050565b81516001600160401b0381111561267c5761267c612043565b6126908161268a845461245d565b84612618565b6020601f8211600181146126c2575f83156126ab5750848201515b5f19600385901b1c1916600184901b17845561265c565b5f84815260208120601f198516915b828110156126f157878501518255602094850194600190920191016126d1565b508482101561270e57868401515f19600387901b60f8161c191681555b50505050600190811b01905550565b608081525f61272f608083018761227d565b60208301959095525060408101929092521515606090910152919050565b80820281158282048414176120265761202661240c565b5f8261277e57634e487b7160e01b5f52601260045260245ffd5b500490565b8260070b8152604060208201525f61279e6040830184612174565b949350505050565b602081525f612228602083018461227d565b600782810b9082900b03677fffffffffffffff198112677fffffffffffffff821317156120265761202661240c56fea264697066735822122030b809e46ea9ba70c9d450e13eb03df41c2c61ee481ff9023fd69e6a6ae9945564736f6c634300081c0033",
  "linkReferences": {},
  "deployedLinkReferences": {},
  "immutableReferences": {},
  "inputSourceName": "project/contracts/PredictionArena.sol",
  "buildInfoId": "solc-0_8_28-0f49a3845e972eab25fce032bff017116f89918c"
}